:10000000004000202900000080B400AF044B1A46D5
:1000100004231360034B1A4604231360FAE700BF5E
:10002000180500500805005080B588B000AF1B4A85
:100030001B4BD31A9B10BB60194BFB61194BBB6167
:1000400000237B610AE0BA69531CBB61FB69591C40
:10005000F96112781A707B6901337B617A69BB6838
:100060009A42F0D3104A114BD31A9B107B600F4B6E
:100070003B610023FB6007E03B695A1C3A610022A8
:100080001A70FB680133FB60FA687B689A42F3D30D
:10009000FFF7BAFF00BF2037BD4680BD0400002037
:1000A00000000020B0000000040000200400002038
:1000B0000000005018050050080500500C050050C5
:0400C0000400000038
:0400000300000029D0
:00000001FF
